:1000000000200020B9040000A1040000A3040000A7
:1000100000000000000000000000000000000000E0
:10002000000000000000000000000000A10400002B
:100030000000000000000000A1040000A104000076
:10004000A1040000A1040000A1040000A10400001C
:10005000A1040000A1040000A1040000A10400000C
:10006000A1040000A1040000A1040000A1040000FC
:10007000A1040000A1040000A1040000A1040000EC
:10008000A1040000A1040000A1040000A1040000DC
:100090000000000000000000000000000000000060
:1000A0000000000000000000000000000000000050
:1000B0000000000000000000000000000000000040
:1000C0000448054B10B5834203D0044B002B00D0ED
:1000D000984710BDBC020020BC02002000000000B8
:1000E00006480749091A8B10C90FC91810B54910DD
:1000F00003D0044B002B00D0984710BDBC02002059
:10010000BC0200200000000010B5074C2378002B33
:1001100009D1FFF7D5FF054B002B02D0044800E0C2
:1001200000BF0123237010BDE0020020000000008A
:1001300020820000054B10B5002B03D00449054870
:1001400000E000BFFFF7CCFF10BDC046000000007C
:10015000E402002020820000402292029A1A924675
:100160007047C046174B002B00D1134B9D46FFF73D
:10017000F3FF00218B460F461348144A121A03F06E
:100180008DFD0E4B002B00D098470D4B002B00D05F
:1001900098470020002104000D000D48002802D0DF
:1001A0000C4800E000BF03F085FD2000290000F0AE
:1001B000A3FA03F01FF8C04600000800000000008A
:1001C000AD04000000200020E0020020F804002020
:1001D000000000000000000010B500F0FDF800F085
:1001E00015F800F0DBF800F049F800F07BF810BDDE
:1001F00010B500F041F800F073F800F0CDF810BD34
:1002000010B5FFF7E9FFFFF7F3FF10BD10B50021B0
:10021000012001F0A7FA33220021012001F03CFA6D
:100220000021012001F07EFA0121012001F09AFA5B
:100230002F220121012001F02FFA0121012001F0DC
:1002400071FA0221012001F08DFA01220221012020
:1002500001F022FA0221012001F064FA03210120B9
:1002600001F080FA05220321012001F015FA032193
:10027000012001F057FA10BD7047000010B50021B1
:10028000154800F0A1FB154A80235B02C0218900BC
:1002900053504031505803435350032201210C2046
:1002A00001F01EFA00220121012001F019FA0122B9
:1002B0000121042001F014FA01220121052001F09E
:1002C0000FFA02220121062001F00AFA022201217E
:1002D000082001F005FA10BD0000304000003A404F
:1002E0007047000010B51D4A00211D4800F080FB3A
:1002F0001C4A1D4C0021200000F07AFB1B4A022101
:10030000200000F075FB1A4A0321200000F070FB6A
:10031000184A0721200000F06BFB174A174C0021F8
:10032000200000F065FB164A0121200000F060FB70
:10033000144A154C0021200000F05AFB134A0121F9
:10034000200000F055FB124A0221200000F050FB73
:10035000104A0321200000F04BFB10BD447D00003B
:1003600000000440E47C000000010440147D000013
:100370002C7D0000CC7C0000FC7C000000020440CE
:10038000B47C00008C7D000000030440A47D0000CC
:10039000747D00005C7D00007047000010B50A49C4
:1003A000032001F06BFD0949052001F067FD084BB2
:1003B0000222C02189005A5040315A5019688022C7
:1003C00012060A431A6010BD0500004006000040F6
:1003D00000003A4001BE704710B5302001F0D8FA55
:1003E000204C80231B0623631F4801F065F8002082
:1003F00001F008F9A36A0C229343A362A36AB43202
:100400009343A36200F0A8F8002001F0C9F9A26BA1
:10041000164B9A421DD0164801F04EF8002000F00D
:10042000C9FF002001F0EEF8011E17D10D4B9A6AAA
:100430000C218A439A629A6AB4318A439A620D49BE
:10044000012001F039FB302001F0A2FA00F084F81D
:1004500010BDE36A5B005B08E362DCE70620FFF7A0
:10046000B9FFE3E70000034000366E016588EDAC9C
:10047000006CDC0280BB000010B5044801F0A4FA57
:10048000002801D0002010BD0148FCE7C00000207A
:100490000000020610B5FFF7B3FEFFF7EDFF10BD39
:1004A000FEE710B501F072FA10BD704710B5FFF706
:1004B000FCFF10BD7047000010B5FFF7FBFF00F018
:1004C0003FF8174C1749C022200003F024FC164BBC
:1004D0009C60BFF34F8F154A09E01468990050687B
:1004E00064584450013391688B42F6D30C32104B60
:1004F0009A4201D20023F6E70E4909E00A68980003
:1005000012180020106001334A689342F6D3083174
:10051000094B994201D20023F6E7FFF723FEC046BC
:10052000000000200000000000ED00E02C82000030
:1005300038820000388200004082000070470000CE
:1005400010B5034B034A9A6372B6FFF7F7FF10BD6D
:10055000000003406588EDAC70B5114B9B6A9B09A8
:1005600003251D400124AC4001F078F8640800190F
:10057000E84014D00B4B1860441E0B49200001F0DA
:10058000F9FC0130094B1870FA218900200001F0B4
:10059000F1FC0130064B1860C003064B186070BDBB
:1005A00000000340DC00002040420F00E800002073
:1005B000E4000020E0000020024A136801331360C9
:1005C0007047C04604030020064BBE2252009958D3
:1005D000343A9858044A1060B822520099509B58F7
:1005E0007047C0460000064008030020F0B5CE4624
:1005F000474680B587B0040000F06CF9002861D050
:10060000344A84235B00D258334B1E68B61A1A60F2
:10061000FA239B00F218FA23DB009A421CD92F4BD5
:1006200018682E4B186002F0E5FC071C011C200026
:1006300000F062F9051C002101F024FE00280DD114
:100640000021281C01F032FE002840D0281C01F0B7
:1006500041FE0200002007E03000E2E780231B0695
:10066000E81801F037FE00221A4BC8214900585003
:1006700080315A501A4B186802F00EFD194901F0EA
:10068000E1FF051C23689946300002F0B3FC804668
:10069000281C02F049FD04000D00134E404602F0F4
:1006A00043FD04900591381C02F03EFD0290039139
:1006B000484602F039FD0090019122002B003000E5
:1006C00003F0DCFA07B0C0BCB946B046F0BD00226A
:1006D0000020C9E7000006400C03002010030020A2
:1006E0000403002000007A44BC7D0000014B186820
:1006F0007047C0460403002030B58FB0FFF7CAFE34
:10070000002806D05D4B80229A647D2001F01AF902
:10071000F8E762B65A495B4C0022200000F088FCE2
:10072000226880231B0613432360200001F016FC7F
:10073000002806D0514B80229A647D2001F002F9F6
:10074000F8E75149514800F005FA002806D04B4B14
:1007500080229A647D2001F0F5F8F8E74B4800F01C
:1007600045FC4B4A02214B4801F076FA002806D09E
:10077000424B80229A647D2001F0E4F8F8E7454876
:10078000036804210B4303608022920084580123F4
:1007900023438350404A01F05FFA002806D0374BCC
:1007A00080229A647D2001F0CDF8F8E7394C226868
:1007B000102313432360A022D200A35801252B430A
:1007C000A350A0235B05A360344A0021200001F060
:1007D0000FFB23682B43236080235B00A36001F0A1
:1007E00053F92F49002001F093F92E4A29002000E7
:1007F00001F09AF922680223134323600CA82A4BC4
:10080000020012CB12C2294901F04AF8284B80227B
:100810001202C02149005A501A6030220021684655
:1008200003F03CFA234B0193234B0293FF239B05D8
:100830000393224B0493224B05933223069368467D
:1008400000F054F805E002F0D5FB00906846FFF791
:10085000CDFE0A4B80229A641A4B1A681A4B9B1AD7
:1008600078205843FA21490001F00EFC03000A33B6
:10087000142BE8D800230093E8E7C04600010440A9
:10088000B87A000000000940047B000000003A40F4
:10089000807B000000000640E47B0000487C0000F4
:1008A000B9050000687C0000D87D0000C905000083
:1008B00000E100E00000A0400000404000806DC466
:1008C00000806D4408030020DC05000010B5FFF730
:1008D0000DFF10BD10B50400FFF7F8FFA36AC31A9F
:1008E000A269002093424041C0B210BD10B504007F
:1008F000FFF7ECFFA06210BDF8B5CE46474680B5C5
:1009000004000E1C006802F0B5F9071CE061256ABE
:10091000A16802F061F8011C281C01F0F3FC051C21
:10092000206263699846191C01F0C0FC002809D1B7
:1009300023699946191C281C01F0A4FC002802D048
:100940004D4600E045462562616A301C02F092F98E
:1009500081466168381C02F03FF8291C01F0D2FC86
:10096000051CE068494602F037F8011C281C02F01B
:1009700081F9051C011C404601F084FC002808D1C7
:1009800023699846291C181C01F090FC002800D10E
:10099000A8466662FFF79AFFA0624046C0BCB9460F
:1009A000B046F8BD000000000230800803D00130DE
:1009B0000238FCD1C046C0467047EFF3108072B6D3
:1009C000704780F31088704710B50B00012902D9D9
:1009D000032900D001BE054C842040002158032289
:1009E000914313401943215010BDC04600003F40C1
:1009F000F0B5002800D195E0002A00D194E0072945
:100A000000D901BE1368012B00D901BE53680F2421
:100A1000A34300D001BE137A0F24A34300D001BE2C
:100A2000D368032B00D901BE1369012B00D901BE85
:100A30005369012B00D901BE1368072900D901BEF3
:100A4000012B00D901BE002B00D067E001338B40A1
:100A500043645568072900D901BE0F232C009C432D
:100A600000D001BE4E007618846807231F00B740EF
:100A7000BC432B40B34023438360846901231E00A1
:100A80008E40B443ED082B408B4023438361167A9C
:100A9000072900D901BE0F2334009C4300D001BEBA
:100AA000224BC3181B0A224CA44663441B021C6839
:100AB0008F000F25BD40AC430F253540BD402C4372
:100AC0001C60D568082900D901BE032D00D901BEDC
:100AD0004900C46803231E008E40B4432B408B4062
:100AE0002343C3601369012B00D901BE8168114CF7
:100AF00021401B068024640423400B438360536918
:100B0000012B00D901BE82680B490A405B06802197
:100B100089040B40134383600020F0BD01238B4008
:100B2000036496E70548F8E70448F6E70000FCBFD1
:100B300000024000FFFFFFFEFFFFFFFD01005A0023
:100B4000034B9C46604443425841C0B27047C04684
:100B50000000C6BFF0B5D6464F464646C0B50500B4
:100B60000C00002800D1EDE0002C00D1ECE02800C2
:100B7000FFF7E6FF002800D127E2002C00D12AE28F
:100B80002378043BDBB2032B00D901BEA378072BEB
:100B900000D901BEE378012B00D901BE6379032B94
:100BA00000D901BE237A012B00D901BE237B072B7C
:100BB00000D901BEA37B012B02D9032B00D001BEBB
:100BC0002369023BBA4A934200D901BE6369023BE2
:100BD000B74A934200D901BEA369023BB44A93428B
:100BE00000D901BEE369023BB14A934200D901BE7C
:100BF000226A80235B029A4200D301BE626A80238C
:100C00005B029A4200D301BE2823E35C032B00D988
:100C100001BEE36A5B0C00D001BE2B68C0229205C6
:100C200013402B60296822781201702313406278E8
:100C3000002A00D18AE080221343A2785202E020E9
:100C4000000102401343E2785203802080010240F9
:100C500013432279002A7BD0802252031343627906
:100C60001206C020800402401343A279002A71D0EA
:100C7000802212051343E279002A6DD08022D2052A
:100C80001343194329606B688022120313406B6081
:100C90006968227A01231340627A002A5ED0022218
:100CA0001343A27A002A5BD004221343E27A002A7B
:100CB00058D008221343207B0001702202401343C6
:100CC000627B002A50D080221343A27B5204C020B2
:100CD000C00202401343E27B002A47D08022120662
:100CE00013431943696023699B059B0D62691204D4
:100CF00070490A4013432B61A3699B059B0DE26970
:100D000012040A4013436B61236A1B041B0C626AC2
:100D100012041343AB612823E35C9B07EB61A16FD3
:100D20004808654B9C46604401F024F90004030C1C
:100D30009846E36A1B041B0C2B6200239A469C46D0
:100D4000002264E001BE0FE701BE10E7002273E756
:100D5000002283E700228DE7002291E700229FE72F
:100D60000022A2E70022A5E70022ADE70022B7E7B4
:100D70003238C0B2012862D89878012800D901BE63
:100D80001879032800D901BE0F2A66D81E7877206B
:100D900030405E78002E5CD08026760030439E780E
:100DA00076028027BF003E403043DE78002E52D0CE
:100DB0008026F60030431E793603C027BF013E402F
:100DC00030430E002036B60070515878002802D10A
:100DD000A078072864D039484E0000273752384899
:100DE0008E00474637500F2A6ED85879002804D015
:100DF0000120884056460643B2469B79002B04D01A
:100E000001238B40614619438C460132D2B2102A2D
:100E100076D8110013000C339B001B59002BF4D023
:100E200018780728A8D943280BD84228A4D2232809
:100E30009ED82228A0D21238C0B201289CD901BE67
:100E40009AE7702898D0FAD37238C0B20128F6D841
:100E500092E70026A2E70026ACE71E787720304014
:100E60005E78002E18D08026760030439E78760279
:100E70008027BF003E403043DE78002E0ED0802613
:100E8000F60030431E793603C027BF013E40304391
:100E9000A026B600A85198E70026E6E70026F0E76E
:100EA000A07A002897D005484E00064F375296E7A3
:100EB000FD0300000000FF030080380158030020FC
:100EC0001403002000F8FFFF5979002914D04021B5
:100ED0009B79002B12D020230B430021002900D046
:100EE00001BE842080002B502858002900D001BE6C
:100EF000862189006B5088E70021E9E70023EBE7B2
:100F000063461B0C1904002B00D001BE63461B0472
:100F10001B0C88229200AB50AA58002900D001BEB9
:100F20008A229200AB5053461B0C1A04002B00D0AF
:100F300001BE53461F043F0C8C239B00EF50EB581F
:100F4000002A00D001BE8E239B00EF50636F002B60
:100F500019D01A688023DB059A4200D301BE636F63
:100F60005A681F4B1A4200D001BEC1239B001D4A84
:100F7000EA50636F1A68C0239B00EA50636F5A6897
:100F8000D0239B00EA50F0231B01EB583F2B04D0E9
:100F9000F0231B01EB58002B03D1F0231B010B2284
:100FA000EA502379002B0ED080221206E0239B000A
:100FB000EA502378042B10D02A6B80239B0513431F
:100FC0002B63002002E00022F0E70748E0BCBA46AD
:100FD000B146A846F0BD0448F8E70020F6E7C04651
:100FE00000FF30FFFFFFFF3F0100060010B5036860
:100FF000002B00DA10BD026880231B061343036038
:10100000022000F0B9FCF5E703681B050CD510229F
:1010100082239B00C358DB05DB0D934206D090234F
:101020009B00C150012070470822F1E70020FAE739
:10103000F0B5002800D179E1002900D178E10B78E2
:10104000022B00D901BE4B7B023BDBB2062B00D941
:1010500001BE8B7B002B04D0022B02D0032B00D0CF
:1010600001BE2223CB5C012B00D901BE2823CB5C1F
:10107000012B00D901BE0B78012B07D98B7F002BE8
:1010800009D04B68013B062B05D903E04B68083BB0
:10109000082B00D901BE8B68053B042B00D901BE8B
:1010A0004B69FF2B00D901BE8B69FF2B00D901BE14
:1010B0008B7C002B07D00B78002B03D18B68092B7E
:1010C00000D185E001BE2023CB5C002B03D00B7840
:1010D000002B00D001BE8C6B974B1C4200D001BE90
:1010E0000C6C964B1C4200D001BE0B78022B74D0C6
:1010F0004C68013C0B7F002B74D080256D020F23C0
:1011000023402B438024A4042343036003688C689A
:10111000082C69D880242401234303604C6B0368A6
:101120001B0563D510239C4200D301BECC6B036822
:101130001B055DD510239C4200D301BE4C6A036899
:101140001B0557D510239C4200D301BE0B781B060C
:10115000C024A404234003644B7F002B4CD04023C5
:101160008C7C002C4AD08024E400234320240C5D96
:10117000002C45D08024640123430C7C002C41D0FA
:101180008024640023434C7C002C3DD08024A400A8
:101190002343CC6A013C2404F0252D032C40234337
:1011A0004D7B013D07242C4023438D7B2D013024B2
:1011B0002C40234383640B7B002B27D080246400C6
:1011C000CB7B002B24D10B78022B49D0002321E0CC
:1011D0008B7B002B00D176E774E78B7F002B87D1C8
:1011E000002487E700258AE7002495E708239AE78B
:1011F0000823A0E70823A6E70023B1E70024B4E70B
:101200000024B9E70024BDE70024C1E70024D7E7A4
:1012100080239B001C438D68013D0F231D402C4300
:10122000C026B60084514D69FF242C408D692D04E1
:10123000FF273F043D402C43C425AD004451CC6AF8
:1012400085592B4003339C4201D3102C00D901BE99
:10125000CB7F002B07D00B78012B5AD0002503E061
:1012600080239B00D6E700254C7B013C07232340CD
:101270002B438D7B2D0130242C40234343640B7B77
:10128000002B49D080256D008C68013C0F23234042
:101290002B438024A40003514C6BFF232340C12423
:1012A000A40003512123CB5C002B37D080239B0467
:1012B00022240C5D012C33D00024234328240C5D10
:1012C000012C30D0002423434D6AFF2425402B43BA
:1012D0000365CB6B1C4081239B00C4508B6B184C67
:1012E0002340184C03510B6C174C2340174C0351EF
:1012F000002A1FD00023536013609360D3601362F1
:10130000D3625363897F3033D154114B93630020F0
:10131000F0BD80256D00A7E70025B5E70023C7E7EE
:1013200080246404C9E780246402CCE70948EFE71D
:101330000848EDE70020EBE792F4FFFF8CF8FFFF91
:101340006D0B0000C80F000073070000880F00003D
:10135000EFCDAB000160AA00014B18687047C04692
:101360007C0300200B4B1B6B002B01DB0020704724
:10137000084A094BD3589B001C221A405101891A74
:101380008B015B1ADB009B189801044B9C46604460
:10139000EDE7C04600000340080F000000366E0174
:1013A000034B1B685B0001D4002070470120FCE761
:1013B0000000074070B50400012865D8344B1B6B52
:1013C000002B01DB334860E0FFF7EAFFA0425DD06D
:1013D000002C13D1304A136830490B4013602C495C
:1013E0002F4BCA5892001C2313402E4A9446634444
:1013F0001B78DBB22C4A8B50002046E0012C01D038
:101400002A4842E0244B1B68002B01DB21483CE0CA
:101410001F4A254B0021D150FFF7A4FF8023DB0199
:101420009C466044C30B013B5B055B0DA02252034D
:101430001343194CA3601E4B1D6B302000F0A8FA1B
:1014400022688023DB051343236000240DE0012084
:1014500000F078FA103410498B68164A1340A20540
:10146000FF208005024013438B60FF2CEFD9012041
:1014700000F068FA084A9168FF239B050B439360CC
:101480000B4B1D63002000E0084870BD0020FCE706
:101490000000034003004A0000000740FFFFFFBFB9
:1014A000080F0000E5F1FF0F0C0F000001004A00DB
:1014B00000001040FFFF3FC0F0B5D646474680B55C
:1014C00083B004003A4B1B6B002B6BDA394B98420C
:1014D00013D0394B984210D0384B98420DD0384B2E
:1014E00098420AD0374B984207D0374B984204D0E5
:1014F000364B984201D0364855E0FFF733FFA04203
:1015000001D100204FE0334BE018334900F032FDA9
:101510000400FFF752FA0600FFF742FF0190071E92
:101520001FD1234B00212D4A99502D4AA218127821
:10153000D2B22C481A50F122120199502A4AA2180C
:101540001278D2B229495A50A4083220FFF72CFA57
:10155000002C0AD1002F21D13000FFF732FA0020F1
:1015600021E00020FFF726FFDBE7114B9A461B4DD9
:101570005B59072290469343621E41460A4013433B
:10158000524653513220FFF70FFA53465A594346F9
:101590009A432340134352465351DBE70198FFF728
:1015A00009FFD9E7124803B0C0BCBA46B046F0BD47
:1015B0000000034000366E01003FAB010048E80127
:1015C00000512502005A620200639F02006CDC0297
:1015D00001004A0000CA91FE40420F00080F0000BF
:1015E000E5F1FF0F0C0F0000CCF1FF0F180F00000A
:1015F00003004A00024B9B6A032018407047C04614
:101600000000034010B50400012801D9104810BDA6
:10161000FFF7F0FF844216D0002C03D10D4B1B6B5B
:10162000002B07DB012C01D00B48F0E7FFF794FEFD
:1016300000280AD007498B6A0322934322401343B0
:101640008B620020E3E70020E1E70348DFE7C046C4
:1016500001004A000000034003004A0070B50D4B32
:101660009B6A9B0803251D400124AC40FFF7C2FF85
:10167000002806D0012808D000236008C018E840E0
:1016800070BDFFF76FFE0300F7E7FFF765FE03008D
:10169000F3E7C0460000034010B5012801D00C4814
:1016A00010BD052910D880235B029A420ED209484A
:1016B000C03189000B58084C23401202074C2240CD
:1016C00013430B500020EBE70148E9E70048E7E748
:1016D00001004A0000000140FF0000FF00FFFF0082
:1016E0000C2816D8012903D0022904D00B4811E098
:1016F000052A02D9F8E7022A0DD88901FF230B40F9
:101700003F210A40134340308000054A83500020A7
:1017100000E0024870470148FCE7C04601004A006B
:1017200000000140012803D0022804D00A4810E03C
:10173000052902D9F8E702290CD88001FF230340CC
:101740003F220A401343054A1343054A13601368B6
:10175000002070470048FCE701004A0000FF0080BD
:1017600000000140012803D0022804D00A4810E0FC
:10177000052902D9F8E702290CD88001FF2303408C
:101780003F220A4013438022D2051343034A1360C9
:10179000002070470048FCE701004A0000000140BB
:1017A000022811D8012809D008498B6A30229343B6
:1017B0000001024013438B6200207047034B1B6BF8
:1017C000002BF1DB0248F8E70248F6E7000003408F
:1017D00003004A0001004A0010B5042921D00AD8AC
:1017E000012915D0022904D11A4B00221A700020B9
:1017F0000DE019480BE0082908D1184B1B78002B85
:1018000020D1144B00221A70002000E0124810BDB5
:10181000134B1B78002B1AD10E4B01221A7000209B
:10182000F5E7104B1B6BDB0F0C4A137001D1002046
:10183000EDE7FFF7B5FD0C4B18700020FFF7BAFD80
:101840000020E4E7084B1878FFF7B4FDD9E7024819
:10185000DDE7C04683030020FF0042008103002033
:10186000800300200000034082030020094B9A6897
:10187000094B9A4204D01030084B8000C058704782
:10188000002905D01030044A830098589950F6E793
:1018900001BEF7E700ED00E00000002000000000BE
:1018A000F0B5C64600B5002841D04368032B00D9E7
:1018B00001BE0023C25E4468002A1BDB93081D4D55
:1018C000A846C0339B005F5903251540ED00FF2259
:1018D0001600AE40B743A4012240AA403A43444612
:1018E0001A51154B9A68154B9A421AD0002080BCA9
:1018F000B846F0BD0F231340083B9B0806339B00FE
:101900000D4DAC4663445E6803252A40D200FC3589
:101910002F009740BE43A4012540954035435D60AC
:10192000DFE70023C05EFFF7A1FF0020DFE70448E8
:10193000DDE7C04600E100E000ED00E0000000202F
:101940000100560010B5040006E0084B1868FFF7C8
:101950002BF8074B9C46644480231B029C42F4D81E
:10196000044B18686043FFF71FF810BDE00000202B
:101970000080FFFFE400002010B5034B1B785843A4
:10198000FFF712F810BDC046E8000020FEE7000097
:10199000102803D9202813D8012100E0002109488C
:1019A000036B032293430A4013430363036B102228
:1019B0009343002900D010210B43024A1363704760
:1019C0000221ECE70000104030B500283CD0C3688D
:1019D000002B3BD00368002B3AD005791E4BAA00A0
:1019E000D258002A28D0140000E01A005369002BB6
:1019F00007D0824205D0197E027E9142F5D81C00A4
:101A0000F3E7824226D02369002B08D06369436143
:101A10000461002B00D018616061012015E0027E96
:101A2000237E9A42F2D244610023036120610A4B73
:101A3000AD00E850012008E0074BAD00E85000235E
:101A400043610361012000E0002030BD0020FCE77D
:101A50000020FAE70020F8E78403002010B5084BC7
:101A60001B68DB030AD410BD0134042CFBD8054BE2
:101A7000A200D358002BF7D09847F5E70024F4E7ED
:101A800010E000E090030020044B1A6802210A4392
:101A90001A601A6801390A431A60704710E000E0C2
:101AA00004490B68042293438000024013430B60F7
:101AB0007047C04610E000E070B50E0080235B0464
:101AC000994200D301BE002304E00D4A9C0000258A
:101AD000A5500133042BF8D90A4B0B4ADA63FFF700
:101AE000DFFF80235B049E4200D301BE3602360A2C
:101AF000064B5E6000229A60FFF7C6FF70BDC046CD
:101B000090030020000000205D1A000010E000E0BB
:101B1000042804D8034A830098589950704700203D
:101B2000FCE7C0469003002030B5002800D18CE0CF
:101B3000002A00D18BE053681B061B0C9468A40498
:101B40008025ED022C402343D4682404C025AD0237
:101B50002C40234314692406E025ED042C40234344
:101B6000147F002C5FD0012423430C1DA4012350BB
:101B7000D368002B59D18B01C3180933FF330024DC
:101B80001C601369002B0AD155698B01C3181C0016
:101B90000D34FF34256094691133FF331C601468E1
:101BA0008901401803001533FF331C60916A0F232D
:101BB0000B40116B0902F024240121400B43916B6F
:101BC0000904F024240321400B43116C0907090C7C
:101BD0000B43916C0901FF2421400B43010021318B
:101BE000FF310B60516A03230B40D56A2D01302170
:101BF00029400B43516B0902C025AD0029400B431E
:101C0000D16B89010C402343546CA4000C2121406A
:101C10000B4301002531FF310B60136A3930FF306F
:101C20000360002030BD00249EE7012B06D08B010D
:101C3000C3180933FF3301241C60A2E714688B0129
:101C4000C3180933FF331C609BE70248EAE70148E9
:101C5000E8E7C0460100B60070B5002800D1C0E03A
:101C6000002A00D1BFE02823D35C002B3FD0012302
:101C7000147F002C3DD0022423431469A404802542
:101C8000ED022C40234394682404C025AD022C406F
:101C9000234315682C06E026F60434402343146BD6
:101CA000566B760034432405C026B60334402343E4
:101CB000946BA4002343052D1DD054682406240CE6
:101CC00023430C1DA40123501368062B17D09368DF
:101CD000002B00D06BE08B01C3181C000934FF34CB
:101CE000002525602933FF3331241C6012E00023D6
:101CF000BEE70024C0E7D4682406240CE0E78B018B
:101D0000C3181C000934FF34012525602933FF3333
:101D10003F241C60146A8901401803000D33FF330F
:101D20001C60516A04331960516904331960916968
:101D300004331960116C0F230B40916C0902F024DD
:101D4000240121400B43116D0904F0242403214098
:101D50000B43916D0907090C0B43116E0901FF2418
:101D600021400B4301002131FF310B60D16B032374
:101D70000B40556C2D01302129400B43D16C0902D9
:101D8000C025AD0029400B43516D89010C40234310
:101D9000D46DA4000C2121400B4301002531FF31FB
:101DA0000B60D36A3930FF300360002070BD012B17
:101DB0000BD08B01C3181C000934FF3401252560AA
:101DC0002933FF3312241C60A4E755698B01C31823
:101DD0001C000934FF3425602933FF331C241C60A8
:101DE00098E70248E2E70148E0E7C0460100B60094
:101DF00070B5041E3AD0002A3AD013681B05C020E3
:101E000080030340C020800418430B1D9B01185120
:101E100093691B01FF252B40D0690004F02636038F
:101E200030400343D0680002F026360130400343BF
:101E300050690007000C034388012018010021317C
:101E4000FF310B609168090130230B401169890152
:101E50000D402B4307490B4301002531FF310B6037
:101E600053683930FF300360002070BD0248FCE742
:101E70000148FAE70F0300000100B600F8B50500BD
:101E80000C00174B184200D001BE154B2340802296
:101E9000D205934200D001BEF02212012B00634014
:101EA0001E001640134202D00E4E3000F8BDFEF761
:101EB00084FD220A0F2313407F2122000A400A4F8B
:101EC000DC01A41880231B019C466444A400E35950
:101ED0008B4329400B43E351FEF773FDE5E7C04612
:101EE00080F0FFFF0100CE0000000140F8B50E00B9
:101EF0001700002901D000240BE000242000F8BDC9
:101F0000064B18682900FFF77FF80028F8D0013643
:101F10000134BC42F2DA35780020F6E7A403002051
:101F200030B5002916D000200EE0D0239B00E358E6
:101F30005D1CFAD0DBB20B7001300A2B0BD00D2BDD
:101F400009D00131904206DA034B1C68D0239B0074
:101F5000E358EDE7002030BDA4030020002803D0A3
:101F6000024B1860002070470148FCE7A4030020E2
:101F700000008206002243088B4274D303098B427F
:101F80005FD3030A8B4244D3030B8B4228D3030C49
:101F90008B420DD3FF22090212BA030C8B4202D3EB
:101FA0001212090265D0030B8B4219D300E0090A13
:101FB000C30B8B4201D3CB03C01A5241830B8B421C
:101FC00001D38B03C01A5241430B8B4201D34B0305
:101FD000C01A5241030B8B4201D30B03C01A52416A
:101FE000C30A8B4201D3CB02C01A5241830A8B42EF
:101FF00001D38B02C01A5241430A8B4201D34B02D8
:10200000C01A5241030A8B4201D30B02C01A52413B
:10201000CDD2C3098B4201D3CB01C01A52418309EF
:102020008B4201D38B01C01A524143098B4201D329
:102030004B01C01A524103098B4201D30B01C01A54
:102040005241C3088B4201D3CB00C01A52418308CE
:102050008B4201D38B00C01A524143088B4201D3FB
:102060004B00C01A5241411A00D20146524110465B
:102070007047FFE701B5002000F0F0F802BDC04650
:102080000029F7D076E7704703460B437FD4002240
:1020900043088B4274D303098B425FD3030A8B42FC
:1020A00044D3030B8B4228D3030C8B420DD3FF2266
:1020B000090212BA030C8B4202D31212090265D034
:1020C000030B8B4219D300E0090AC30B8B4201D3E7
:1020D000CB03C01A5241830B8B4201D38B03C01A2E
:1020E0005241430B8B4201D34B03C01A5241030BA5
:1020F0008B4201D30B03C01A5241C30A8B4201D356
:10210000CB02C01A5241830A8B4201D38B02C01A00
:102110005241430A8B4201D34B02C01A5241030A77
:102120008B4201D30B02C01A5241CDD2C3098B425C
:1021300001D3CB01C01A524183098B4201D38B01D9
:10214000C01A524143098B4201D34B01C01A52417C
:1021500003098B4201D30B01C01A5241C3088B42C1
:1021600001D3CB00C01A524183088B4201D38B00AC
:10217000C01A524143088B4201D34B00C01A52414E
:10218000411A00D201465241104670475DE0CA0F25
:1021900000D04942031000D34042534000229C46E5
:1021A00003098B422DD3030A8B4212D3FC228901EF
:1021B00012BA030A8B420CD3890192118B4208D3C5
:1021C000890192118B4204D389013AD0921100E027
:1021D0008909C3098B4201D3CB01C01A524183093B
:1021E0008B4201D38B01C01A524143098B4201D368
:1021F0004B01C01A524103098B4201D30B01C01A93
:102200005241C3088B4201D3CB00C01A524183080C
:102210008B4201D38B00C01A5241D9D243088B4262
:1022200001D34B00C01A5241411A00D20146634605
:1022300052415B10104601D34042002B00D5494269
:10224000704763465B1000D3404201B5002000F0A8
:1022500005F802BD0029F8D016E770477047C04660
:10226000844608006146FFE71FB500F071FB0028B7
:1022700001D40021C8421FBD10B500F0FDFA404254
:10228000013010BD10B500F063FB002801DB002019
:1022900010BD012010BDC04610B500F059FB00284C
:1022A00001DD002010BD012010BDC04610B500F0BA
:1022B00009FB002801DC002010BD012010BDC04634
:1022C00010B500F0FFFA002801DA002010BD01204F
:1022D00010BDC0469E2110B5C905041CFFF7F0FFD4
:1022E000002803D1201C00F065FE10BD9E21201C9B
:1022F000C90500F0BFFC00F05DFE80231B069C4674
:102300006044F2E7F8B54746CE464A02430245002C
:10231000C40F500A804648005B0A000E920994469A
:1023200080B51E00814602002D0EDF00C90F8C42D1
:1023300024D0281A00280EDD002A3ED16246002A49
:1023400000D1FDE0421E012800D137E1FF2800D175
:10235000A9E0100039E0002863D04B46521B002D45
:1023600000D0E0E0002F00D1CEE0531E012A00D1C2
:1023700055E1FF2A00D194E01A00D9E02A1A002A78
:1023800000DC99E0002862D0FF2D00D18BE0802393
:102390006146DB0419438C461B2A00DCD2E0012392
:1023A000DB195A016AD50135FF2D5BD00122A34903
:1023B0001A405B080B4013431CE0FF2D00D172E074
:1023C00080236246DB041A4394461B2800DC90E01D
:1023D0000123FB1A5A0151D59B019E09300000F0E0
:1023E000EBFE330005388340854200DC75E0944AFB
:1023F0002D1A13405A0704D00F221A40042A00D085
:1024000004335A013CD5681CFE2D2BD09B015E0A7B
:10241000C0B2C0053043E4072043C0BCB946B04653
:10242000F8BDFE206A1C104272D1002D00D0AEE033
:10243000002F00D1ECE063460020002BE9D0FB1A0E
:102440005A0100D4F3E063460C00DB1BD2E761467F
:1024500000295BD0511E012A00D1A7E0FF2A22D01B
:102460000A0099E7FF200026D3E7FE216A1C1142EB
:1024700073D0FF2AF6D0150067447B085A07BBD1FA
:10248000DB08FF2D0FD05B025E0AE8B2C1E76246AF
:10249000002A08D08022D203134204D040461042C2
:1024A00001D10C004346002BDCD08026F6031E43EE
:1024B0007602FF20760AACE7002AD6D0421B002D18
:1024C0005CD0FF28EED08023DB041F431B2A00DCF6
:1024D00082E001234D46634463E72022401B013024
:1024E000121A19009340C1405A1E934100250B4314
:1024F00080E7202361461B1A994062460B00C240C8
:10250000591E8B41134364E70C0043461500B8E79E
:102510006346FE1A730145D4002E00D05EE7002406
:102520000020002675E7FF2BBBD08023DB041F4370
:102530001B2A47DD012362460C004D46D31A49E7AA
:1025400005009EE761462023D1409B1A62469A40CF
:1025500013005A1E93410B4322E7002D46D1002F52
:1025600062D063460020002B00D152E73B00634459
:102570005A0183D5324A013513407FE7002FC4D07A
:10258000531E012A12D0FF2A8CD01A009EE7002F7A
:1025900000D07CE76346002B83D180260024FF20F7
:1025A000F60336E763460C00DE1B17E73B00634487
:1025B00001255A0100D461E70225F7E663460125AB
:1025C000FB1A07E720239B1A38009F403B00D040AE
:1025D0005A1E93410343AEE720239B1A39009F40C4
:1025E0003B00D1405A1E93410B4373E7002F00D1AB
:1025F00058E76246002A00D155E78022D2031342F1
:1026000000D150E74146114200D04CE743464AE72B
:102610006346002B83D00C0046460020F9E6634653
:102620000C00DB1B0135D5E646460020F1E6002B09
:1026300000D023E700240026EBE6C046FFFFFF7D25
:10264000FFFFFFFBF0B54F464646D6464502C0B5F4
:1026500047000C1C6D0A3F0EC60F002F00D16FE023
:10266000FF2F00D174E00023802299469A46ED00A6
:10267000D20415437F3F63025B0A984663001B0E3A
:10268000E40F002B4DD0FF2B45D042468021D200D5
:10269000C9041143884600227F3B3100FF1A4B4694
:1026A0006140C9B20F2B00D9B8E070489B00C358F5
:1026B0009F46002398462600454692465346022BE5
:1026C00000D18DE0032B00D1A1E0012B18D03B00FD
:1026D0007F33002B6DDD6A0704D00F222A40042AC5
:1026E00000D004352A0103D5614B1D403B008033E7
:1026F000FE2B00DD74E0AA01520AD8B202E00E00FF
:1027000000200022C005F60710433043E0BCBA4663
:10271000B146A846F0BD4346002B3FD10222FF3F01
:1027200003E04346002B2DD1012231004B4661408E
:10273000C9B213430F2B38D84E489B00C3589F464D
:10274000002D13D104239946033B00279A4692E7B4
:10275000002D05D108239946063BFF279A468AE7B4
:102760000C239946093BFF279A4684E7280000F08E
:1027700023FD7627431F9D4000237F4299469A46BA
:102780003F1A78E7404600F017FD4246431F9A4043
:1027900076235B4290461B1A00227EE703234A46BB
:1027A0001A439146FC33032277E70E00FF200022F4
:1027B000A8E70122D31A1B2BA2DC9E372A00BD40BA
:1027C000DA406B1E9D4115436A0704D00F222A4050
:1027D000042A00D004356A0144D50120002291E783
:1027E000FF2000228EE780220026FF20D20389E707
:1027F000002398468022D203154208D04346134254
:1028000005D11A4352022600FF20520A7AE780229D
:10281000D2032A435202FF20520A73E742466B0159
:102820005501AB421AD21B200022013F01261C0099
:1028300052005B00002C01DB9D4201D85B1B324340
:1028400001380028F3D1581E834113431D003B007B
:102850007F330E00002B00DD3DE7AAE71A2001229E
:102860005B1BE3E7AA010020520A4BE7E07D000072
:10287000FFFFFFF7207E000070B5420045024E02C8
:102880004C00C30F6D0A0120120E760A240EC90FE8
:10289000FF2A06D0FF2C03D0A24201D1B54206D0B8
:1028A00070BD002DFCD1FF2CFAD1002EF8D18B4247
:1028B00006D00120002AF3D12800431E9841EFE7FB
:1028C0000020EDE770B5420045024E024C00C30FF8
:1028D0006D0A120E760A240EC80FFF2A1BD0FF2C99
:1028E0000ED0002A1BD1002C01D1002E1CD0002DAF
:1028F0000CD083421CD00221581E0840013870BD04
:10290000002E22D1002AF4D1002DF2D10028F6D1D8
:1029100001204042F3E7002D17D1FF2CF0D0002C0E
:10292000E7D1002EE5D1E6E70020002DE7D0E2E771
:10293000A24205DCEADBB54202D8E7D30020DEE79D
:102940004342584140000138D9E702204042D6E7CF
:1029500070B5420045024E024C00C30F6D0A120EC4
:10296000760A240EC80FFF2A0BD0FF2C0DD0002AA8
:102970001FD1002C16D1002E14D10020002D10D014
:1029800009E0002D0CD1FF2C13D1002E08D1002A14
:1029900008D0834212D00221581E0840013800E0BE
:1029A000022070BD002DF4D10028FAD10120404250
:1029B000F7E7002CEDD1002EEBD1ECE7A24205DCCD
:1029C000F2DBB54202D8EFD30020EAE74342584198
:1029D00040000138E5E7C04643025B0AF0B54F46C8
:1029E00046469946D646C30F45009846C0B54B4665
:1029F0000F1C2D0E00D1CBE0FF2D00D1CFE08022A7
:102A0000DB00D2041A430023914600269A467F3DFC
:102A10007C027B00640A1B0EFF0F002B00D1A9E093
:102A2000FF2B11D08022E400D204144342467F3BA6
:102A30005B197A400020D2B25D1C0A2E13DD3A00E9
:102A40000B2E47D047463FE02B00FF33002C1ED112
:102A500002221643424601357A40D2B2FF350A2E91
:102A600000DDE4E00220022E1CDC013E012E42D8F3
:102A700002283DD0012866D100200021C00508436E
:102A8000D2071043E0BCBA46B146A846F0BD0322C7
:102A90001643424601357A40D2B2FF350A2E00DD98
:102AA000E4E003200121B140A626F60031420AD11C
:102AB0009026B600314216D1B93EFF3E0E421AD0E2
:102AC000A146824600E0170053463A00022B0FD081
:102AD0004C4650460328CDD18021C90321434902E9
:102AE000FF20490ACAE780210022FF20C903C5E769
:102AF000FF200021C2E7200C49462404240C2700B3
:102B00000E0C0904090C74434F4346434843390CE7
:102B1000001909188C4203D980204002844666447B
:102B20003F0408043F0CC0198401671EBC41090C16
:102B3000800E8919044389010C43090171D50123D1
:102B400061081C400C432B007F33002B51DD6107D3
:102B500004D00F212140042900D00434210103D5E1
:102B6000434B1C402B008033FE2BC1DCA101490AE2
:102B7000D8B283E7002C2CD1012342461E432B0000
:102B80007A400120D2B25D1C0A2E00DD57E76AE7C9
:102B9000002B10D10123042600259A4638E7002B8C
:102BA00004D102230826FF259A4631E703230C2689
:102BB000FF259A462CE7484600F0FEFA4A46431F96
:102BC00076259A4000236D42914600269A462D1A9A
:102BD0001EE7200000F0F0FA4246431F9C402B1AEB
:102BE000763B7A400020D2B25D1C0A2E00DD26E73B
:102BF00039E70121CB1A1B2B00DD3DE79E35210073
:102C0000AC40D940631E9C4121434B0704D00F23A5
:102C10000B40042B00D004314B0104D501200021CE
:102C20002CE71D008FE789010020490A26E70223CF
:102C30000F2E0CD180214B46C9030B420DD00C4204
:102C40000BD1214349023A00FF20490A16E70B2E17
:102C500000D0F7E6A1469A4636E780214B46C903E5
:102C6000194349024246FF20490A07E70323DFE7E9
:102C7000FFFFFFF7F0B5C64643025B0A4500DA00E6
:102C8000C40F48024F009446420A1E00904600B509
:102C90002D0E3F0EC90F8009FF2F59D00122514040
:102CA0008C4239D0EA1B002A58DD002F68D0FF2D56
:102CB00000D1D1E08023DB0418431B2A00DCE3E0D1
:102CC00001236246D31A5A0100D4ACE09B019E094D
:102CD000300000F071FA330005388340854200DC93
:102CE000C6E0B24A2D1A13405A0704D00F221A40E8
:102CF000042A00D004335A0100D497E06A1CFE2D48
:102D000000D184E09B015E0AD2B2D0053043E407D3
:102D1000204380BCB846F0BDEA1B002A41DD002FED
:102D20006BD0FF2D00D197E08023DB0418431B2AD2
:102D300000DCCCE0012363445A0174D50135FF2D3A
:102D400065D001229A491A405B080B401343CBE738
:102D500000281FD08C4222D02A00FF3A002A35D00A
:102D60007A1B002D00D099E06346002B00D1DDE0F6
:102D7000531E012A00D105E1FF2A6BD01A0094E00E
:102D8000002873D0511E012A00D1DFE0FF2A63D052
:102D90000A0092E701225140A14200D082E72A00B6
:102DA000FF3A002A36D07A1B002D00D1AAE0FF2F6F
:102DB00000D1DAE080236146DB0419438C461B2AEC
:102DC00000DCD4E001233D001B18B5E7FE276A1C98
:102DD000174271D1002D00D09EE06346002B00D138
:102DE000D5E00022002800D18FE71B1A5E0100D435
:102DF000D6E063460C00C31A76E7002836D0511E91
:102E0000012A00D19AE0FF2A26D00A008FE7FF228C
:102E100000267AE7FE276A1C174262D0FF2AF6D006
:102E20001500604443085A0700D05FE7DB08FF2D18
:102E300012D05B025E0AEAB267E76246002A00D15E
:102E400093E0002808D08022D203134204D04046E9
:102E5000104201D10C004346002BD8D08026F60347
:102E60001E437602FF22760A4FE743461500DEE74F
:102E70002022401B0130121A19009340C1405A1EF3
:102E8000934100250B432FE720239B1A0100984014
:102E90000300D1405A1E93410B4312E7FF2FD9D0B4
:102EA00080236446DB041C43A4461B2A52DD012315
:102EB0000C003D00C31A06E763461E1A730139D49D
:102EC000002E00D004E70024002200261DE7202366
:102ED0009B1A010098400300D1405A1E93410B43B6
:102EE00029E7002DA9D16346002B56D000220028E7
:102EF00000D10AE7030063445A0194D52B4A0135F7
:102F0000134090E76346002BAFD0531E012A15D023
:102F1000FF2A2AD01A0052E76246002A91D10028DF
:102F200098D180260024FF22F603EEE60C004346EB
:102F300015007CE763460C00C61AC9E6030063442B
:102F400001255A0100D46EE70225FAE66346012501
:102F50001B1AB8E664462023D4409B1A62469A4066
:102F600013005A1E93412343A2E7434674E7614688
:102F70002023D1409B1A62469A4013005A1E934167
:102F80000B4320E763460C000125C31A9BE600288B
:102F900099D00C0046460022B7E646460022B4E629
:102FA000002B00D03FE700240026AEE6FFFFFFFB2A
:102FB000FFFFFF7D41024200C30F490A0020120EAD
:102FC0007E2A03DD9D2A02DD094A98187047802079
:102FD00000040143952A07DC9620821AD14048421A
:102FE000002BF3D10800F1E7963A9140F7E7C0468D
:102FF000FFFFFF7F70B5002813D0C317C5185D40D1
:10300000C40F280000F0D8F89E2301001B1A962B4D
:103010000FDC082831D008398D406D026D0AD8B216
:1030200002E0002400200025C0052843E4072043D7
:1030300070BD992B0CDD0522121A2800D040020029
:1030400008001B3085402800451EA841024315009A
:10305000052916DC2A000F4802406E0709D00F260A
:103060003540042D05D00432550102D59F2302407E
:103070005B1A9201550AD8B2D6E76D0296206D0A06
:10308000D2E74A1F95402A00024802406E07F0D05E
:10309000E5E7C046FFFFFFFB70B5041E0ED000F051
:1030A0008BF89E2301001B1A962B0CDC08282CD0D1
:1030B00008398C406402640AD8B201E00020002480
:1030C000C005204370BD992B0ADD020020001B3291
:1030D00090400200501E82410520401AC440144313
:1030E000052916DC22000F480240650709D00F258C
:1030F0002C40042C05D00432540102D59F230240F9
:103100005B1A9201540AD8B2DAE764029620640A84
:10311000D6E74A1F94402200024802406507F0D0DB
:10312000E5E7C046FFFFFFFB70B542024300C40F56
:10313000FE201B0E591C550A08420CD0E0218900C4
:103140008C466D07120B63441B051343E4072343AE
:103150002800190070BD002B14D1002D1BD02800B1
:1031600000F02AF80A281CDC0B232A001B1ADA407C
:10317000030015339D400E4B12031B1A5B05120B07
:103180005B0DE1E7002D09D0130B802212031A43D7
:103190006D07084BD8E700230022D5E70022054B36
:1031A000D2E703002A000B3B9A400025E3E7C04624
:1031B00089030000FF0700001C2101231B04984223
:1031C00001D3000C10391B0A984201D3000A0839B8
:1031D0001B09984201D30009043902A2105C40186F
:1031E0007047C04604030202010101010000000013
:1031F00000000000074B10B50400002B02D0002196
:1032000000E000BF044B1B68002B00D09847200053
:1032100004F044FC00000000E0040020F0B51E00B3
:10322000002314008BB09E4204DA80210906731833
:103230001E002D23129A149F1370202303229F43F4
:10324000462F07D03B00453B59424B411099013A6C
:10325000CB18109309AB049308AB0393139B009214
:103260000293109B22000193330000F0F3FD050050
:10327000472F02D1119BDB0728D5109BEB18079332
:10328000462F14D12B78302B0CD1002200232000A4
:10329000310002F04FFD002804D10123109A9B1A3F
:1032A000139A1360139B079A1B68D3180793002285
:1032B00000232000310002F03DFD002801D0079BD3
:1032C00009933022099B07998B4206D32800099B5A
:1032D000159A5B1B13600BB0F0BD591C09911A7055
:1032E000F0E7F0B5831C87B0039305000C002B2397
:1032F0000270002901DA4C4202336B70092C2FDD79
:103300000A2704ABDE1D200039000196FEF7A2FF5C
:10331000013E30312000317039000294FEF7B4FED6
:10332000029B0400632BEEDC019B30349A1E1300D9
:103330000399147004A8073098420CD800238242E5
:1033400004D804AA09339B18019A9B1A039AD3182C
:10335000581B07B0F0BD1878013308700131E9E758
:1033600030233034AB70EC702B1DF1E7F0B595B025
:103370000C0008921A9D0993070000F097FC03685F
:1033800018000C9300F0D0FC00231293237E072238
:103390000A9323680D900B930B992B68C90547D5A9
:1033A0009B1893431A0008322A601E685D68320039
:1033B0002B00A264E36401226B005B080E933000D3
:1033C000AB4B0E99524204F081FA002832D101220F
:1033D0003000A74B0E99524202F0BCFC002829D1C4
:1033E000002200233000290002F0AAFC002803D0AC
:1033F00023002D2243331A700A9B9E4D472B00D980
:103400009D4D03230B9A236101339A4300232260CD
:103410000B93099B210000933800089B13AA00F02E
:10342000FBF9013000D0A3E00120404215B0F0BD0F
:103430000733B6E732002B003000290004F046FACB
:1034400000280BD0002D03DA23002D2243331A70FD
:103450000A9B8A4D472BD4D9894DD2E720220A995D
:10346000636891430E915A1C4AD1073363608023ED
:103470000B9ADB0013430022069212AA05920A9AC5
:103480002360049211AA0392232208A9019363687E
:1034900052180292009332002B003800FFF7BEFE54
:1034A0000E9B0500472B09D1119BDA1C02DB6268D9
:1034B000934249DD0A9B023BDBB20A930A9B1199B6
:1034C000652B24D820001A00013950301191FFF7E4
:1034D00008FF129A0B9013182361012A02DC22685C
:1034E000D20701D501332361232308AA9B181B7837
:1034F000002B00D18DE723002D2243331A7088E77B
:103500000E9A472AB3D1002BB1D10133AEE70A9B03
:10351000662B1BD16368002909DD2161002B02D1D4
:103520002268D2070BD501335B18236107E0002B1B
:1035300003D101222168114200D09A1C2261119B03
:10354000A36500230B93CFE767230A931199129B7E
:10355000994206DB23682161DB07F0D50131216147
:10356000EDE70122002901DC9218521A9B18DCE7D2
:103570002268530508D423692A0038000899099D58
:10358000A84701302AD14FE70A9B652B00D8ECE011
:10359000A06CE16C0022002302F0CCFB002834D0A8
:1035A00001233800374A0899099DA847013000D106
:1035B0003AE7119A129B9A4202DB2368DB070DD58A
:1035C000099D38000D9B0C9A0899A84700250130E9
:1035D00000D129E7129B013BAB420ADC23689B0721
:1035E00000D516E1139BE068984200DB1EE7180047
:1035F0001CE72200012338000899099E1A32B047BF
:10360000013000D110E70135E4E7119B002B3BDCD2
:10361000012338001B4A0899099EB047013000D1A8
:1036200002E7119B129A134302D12368DB07D5D519
:103630000D9B38000C9A0899099EB0470023013071
:1036400000D1F1E60A93119B0A9A5B42934201DC96
:10365000129B91E72200012338000899099E1A3233
:10366000B047013000D1DFE60A9B0133EAE7C046EC
:10367000FFFFEF7F607E0000647E0000687E000038
:103680006C7E0000707E0000129AA36D0A929A422E
:1036900000DD0A930A9B002B3DDC00230E930A9B5E
:1036A000DB43DB170F93A36D0A9A0B930F9B134019
:1036B0000B9AD31A0E9A934236DC119A129B9A42B5
:1036C00040DB2368DB073DD4129E119A0B9BF31A53
:1036D000B61A9E4200DD1E00002E3CDC00230A9339
:1036E000F343DB170B93119A129B9B1A0B9A3240F0
:1036F0009B1A0A9A934200DC70E7220001233800EB
:103700000899099D1A32A847013000D18CE60A9B1E
:1037100001330A93E7E72A0038000A9B0899099EBB
:10372000B0470130B9D17FE6220001233800089963
:10373000099E1A32B047013000D175E60E9B013365
:103740000E93B0E738000D9B0C9A0899099EB0477C
:103750000130B9D168E60B9B3800EA1808993300AC
:10376000099DA8470130B9D15EE6129B012B02DC0E
:1037700001231A423AD001232A0038000899099EF1
:10378000B047013000D14FE638000D9B0C9A0899E4
:10379000099EB047013000D146E6A06CE16C129B57
:1037A00000221E00002302F0C5FA00281CD13300BD
:1037B0006A1C013B38000899099DA84701300FD1C8
:1037C00032E62200012338000899099E1A32B047D8
:1037D000013000D128E60135129B013BAB42F0DC01
:1037E00022000B9B5032C8E60025F5E72A00E1E7EE
:1037F0002200012338000899099E1932B047013090
:1038000000D111E60135E368139A9B1AAB42EFDC55
:10381000E8E60025F7E7C046F7B5160001938A6889
:103820000B690C000090934200DA13002200336011
:1038300043321278002A01D00133336023689B069B
:1038400002D53368023333602268062315001D4019
:103850001A4227D0230043331B785A1E9341226813
:10386000920630D4220001990098089D4332A8475F
:10387000013025D00622236800251340042B05D1F2
:103880003368E568ED1AEB43DB171D40A368226936
:10389000934201DD9B1AED180026B54220D100208D
:1038A00010E00135E36832689B1AAB42D2DD22009A
:1038B000012301990098089F1932B8470130F0D1CF
:1038C00001204042FEBD3020E11843310870210044
:1038D0005A1C45310978A218433202331170C1E7EE
:1038E0002200012301990098089F1A32B84701303D
:1038F000E6D00136D1E70000F0B58BB006920A00A1
:1039000043320793059004920A7E0C00109B782A9C
:1039100009D8622A0BD8002A00D1BEE07C49039165
:10392000582A00D193E026004236327022E010007F
:1039300063381528F7D802F0E3F916001F00F6FFE8
:10394000F6FFF6FFF6FF1F00F6FFF6FFF6FFF6FFA5
:10395000A30036008300F6FFF6FFB400F6FF360042
:10396000F6FFF6FF870026001A684236111D19601F
:10397000136833700123A2E018680968021D0D0660
:103980000BD505681A60002D03DA2D23049A6D42C9
:1039900013705F4B0A2703931BE005681A60490602
:1039A000F1D52DB2EFE70D681968081D18602E06D5
:1039B00001D50D6803E06D06FBD50D68ADB2544B23
:1039C000082703936F2A00D00237230000224333D5
:1039D0001A706368A360002B03DB042122688A430A
:1039E0002260002D02D1049E002B0CD0049E2800E2
:1039F0003900FEF745FB039B013E5B5C33702B00F7
:103A000005009F42F3D9082F09D12368DB0706D5AB
:103A1000626823699A4202DC3023013E3370049BC2
:103A20009B1B2361079B210000930598069B09AA15
:103A3000FFF7F2FE013047D1012040420BB0F0BD4C
:103A4000202209680A43226078223249039121002A
:103A500045310A701968226820C9100602D4500640
:103A600000D5ADB21960D30702D5202313432360DC
:103A70001027002DA9D12022236893432360A4E7B7
:103A80001A680D68101D4969186013682E0601D563
:103A9000196002E06D06FBD519800023049E2361A6
:103AA000C0E71A68111D19601668002130006268AD
:103AB00000F026F9002801D0801B60606368236154
:103AC0000023049A1370ADE7320023690699059824
:103AD000079DA8470130AFD023689B0715D4099BE9
:103AE000E0689842AADA1800A8E7220001230699A4
:103AF0000598079E1932B04701309DD00135E36823
:103B0000099A9B1AAB42F0DCE9E70025F7E7C046CB
:103B1000727E0000837E0000002310B50400036065
:103B200043608360818143661900C2810361436100
:103B3000836108225C3000F0B1F8054B24626362B7
:103B4000044BA362044BE362044B236310BDC046E5
:103B5000295700005157000089570000B557000051
:103B600010B5034A0349044800F06CF810BDC04684
:103B7000EC0000207D4F00006402002041680B4BE8
:103B800010B50400994201D001F0F8F9A168084B82
:103B9000994202D0200001F0F1F9E168054B994209
:103BA00002D0200001F0EAF910BDC046A8030020B1
:103BB000100400207804002010B5094B094A0421A4
:103BC0001A6009480022FFF7A7FF012209210748D0
:103BD000FFF7A2FF022212210548FFF79DFF10BD4B
:103BE000E0040020613B0000A80300201004002036
:103BF0007804002010B5024800F080F810BDC046DF
:103C0000E504002010B5024800F079F810BDC04668
:103C1000E504002010B50400FFF7ECFF236A002B39
:103C200002D0FFF7EFFF10BD044B2362044B1B686B
:103C3000002BF6D1FFF7C0FFF3E7C0467D3B000045
:103C4000E0040020F7B51400002600900191A5685B
:103C50006768013F04D52468002CF8D13000FEBD10
:103C6000AB89012B08D90E22AB5E013304D02900A9
:103C70000098019B984706436835EAE70FB407B5FB
:103C8000054904AB086804CB8168019300F018FF74
:103C900003B008BC04B01847B0020020030082182B
:103CA000934200D1704719700133F9E7004870471B
:103CB000E801002070B500260C4C0D4D641BA410CB
:103CC000A64209D1002603F0EBFE0A4C0A4D641B04
:103CD000A410A64205D170BDB300EB589847013639
:103CE000EEE7B300EB5898470136F2E7B402002044
:103CF000B4020020B8020020B402002070477047D0
:103D0000C9B28218904201D10020704703788B42DB
:103D1000FBD00130F6E7002310B59A4200D110BD68
:103D2000CC5CC4540133F8E70023C25C0133002AA1
:103D3000FBD1581E7047F0B502690B6989B00700C6
:103D4000049100209A4269DB013B9C0001930B0027
:103D5000143306931B1905933B00143303931C196A
:103D6000059B26681D68300001352900FEF702F921
:103D70000290AE4229D3069B00269C46039D0696E0
:103D8000624608CA28689446029A99B251431B0CAD
:103D9000534389190A0C9B1807931E0C069B82B289
:103DA000D2186B4689B29B8B521A010CC91A131494
:103DB000CB18191492B21B04134308C5059B069136
:103DC0006345DDD22368002B30D03800049901F020
:103DD00097FB002821DB38000026029B049C01335E
:103DE000029314301434036802CC9DB2AD198AB228
:103DF000AA1A090C1B0C5B1A11145B181E1492B240
:103E00001B04134308C0059BA342ECD2019B039AF9
:103E10009B00D3181A68002A15D0029809B0F0BD8B
:103E20002368002B06D1019B013B0193039B043CBB
:103E3000A342F5D3019B3B61C7E71A68002A06D16C
:103E4000019A013A0192039A043B9A42F5D3019BED
:103E50003B61E2E7F0B514001D00C6699DB008940F
:103E60000995259F0490002E0FD1102000F044FFEB
:103E7000049B021ED86104D1EF21C64BC64801F055
:103E80003DFE466086600660C660049BDB6919687B
:103E900000290BD05A68012393404A608B60049834
:103EA00001F0ECF80022049BDB691A60002D1EDA99
:103EB00001233B606B005B080993099FB74BB74A2E
:103EC0003B40934216D1B64B249A13603B031B0B25
:103ED000234301D100F0B5FDB24B269A0693002A88
:103EE00002D0B14B269A136006981DB0F0BD002396
:103EF0003B60E2E7089A099B109211931098119980
:103F00000022002301F016FF061E09D00123249A87
:103F10001360A64B0693269B002BE5D0A44BE1E74C
:103F20001AAB01931BAB00930498109A119B01F0FC
:103F30009BFB7A000590520D00D17BE0119B1796F8
:103F400019039C4B090B0B439B4957181098119967
:103F500019000022994B03F037F9994A994B02F066
:103F600071FE994A994B01F013FF040038000D00CF
:103F700003F000FD964A974B02F064FE02000B002E
:103F80002000290001F004FF04000D0003F0BCFC38
:103F90000022039000232000290001F0D1FE002818
:103FA0000BD0039803F0E6FC2B00220001F0C2FEC8
:103FB00043425841039B1B1A039301231693039B0F
:103FC000162B10D810981199039A834BD2009B1886
:103FD0001A685B6801F0B4FE002847D0039B013BE0
:103FE00003930023169300221A9B0A92DB1B5A1E8E
:103FF0003ED50122D31A0A9300230C93039B002B76
:1040000038DB039A0C9B944663440C930023139271
:104010000D93229B0124092B67D8052B02DD002478
:10402000043B2293229B981E032867D801F05EFE72
:104030002B3A385B1B9B1A9EF618684BF218202A05
:104040000FDD40239B1A9F40654B3800F318DC407E
:10405000204303F0BFFC0122624B771ECB1817925E
:1040600076E7202320009B1A9840F2E71690BAE7E3
:104070000C92C3E70A9B039A9B1A0A9353420D932F
:1040800000231393C5E700230F93239B0B93079300
:10409000002B13DC01231A000B93079323920DE0EE
:1040A0000123F1E70023239A0F939446039B634473
:1040B0000B9301330793002B00DC0123049A0021AA
:1040C000D0690422150014359D421BD94160049823
:1040D00000F090FF0690002817D1B021424B2E48E7
:1040E000069AFF31CBE60123DDE700230F942293EC
:1040F000013B0B93079300221333CFE701230F9368
:10410000023BF6E701315200DCE7049B069ADB69CB
:104110001A60079B0E2B00D9E5E0002C00D1E2E0ED
:10412000039B002B64DD0F21039A2B4B0A40D20026
:104130009B181E685F68039B02241D11DB050AD5CE
:104140002A4B0D401A6A5B6A1098119902F080F9A7
:10415000089009910134254B0E93002D08D1089841
:10416000099932003B0002F073F9089009915AE076
:1041700001231D4209D0E4180E9B30001A685B68C9
:10418000390002F05FFD06000F000E9B6D10083332
:10419000E2E7C046AC7F0000C37F00000000F07F74
:1041A0000F270000A87F0000AB7F0000707E00009A
:1041B000717E00000000F03F01FCFFFF0000F83FAF
:1041C00061436F63A787D23FB3C8608B288AC63F1D
:1041D000FB799F501344D33FD0800000320400008D
:1041E00012040000000010FE24800000A8800000DF
:1041F000039B0224002B16D0109811990F225D42C8
:104200002A40DD4BD2009B181A685B6802F01AFD49
:104210000127002308900991D84E2D11002D00D0C0
:1042200091E0002BA1D1089E099F169B002B00D185
:1042300094E0002230003900D14B01F081FD0028CC
:1042400000D18BE0079B002B00D187E00B9B002B5C
:1042500045DD039B0022013B0E933000C94B390022
:1042600002F0F0FC089009910B9B01342000089E9D
:10427000099F129303F07EFB32003B0002F0E2FC48
:104280000022C14B01F084FDC04A14901591149B8B
:10429000159C944608930994159B634418930993BD
:1042A000129B002B5ED10022B94B3000390002F086
:1042B0008BFF089A189B04000D0001F055FD0028A3
:1042C00000D0B3E2B3481599844661440B00200046
:1042D0002900089A01F034FD002800D0A3E2109BC9
:1042E000119C089309941B9B002B00DA79E1039A37
:1042F0000E2A00DD75E1A04BD2009B181E685F6896
:10430000239B002B00DBE5E0079B002B00DDE1E0B9
:1043100000D088E20022300039009D4B02F092FC70
:10432000089A099B01F02AFD079E3700002800D05B
:104330005FE2069B069A0133089331231370039BB7
:10434000013303935AE23D4205D03268736802F0AC
:1043500079FC3B0001346D1008365FE7039B0E9338
:10436000079B83E7129A844B013AD2000F999B185E
:10437000089C099D1A685B68002951D00020864975
:1043800002F066F822002B0002F01EFF069A0400DD
:1043900094460D00069B1493129B634418933900B6
:1043A000300003F0B1FA129003F0E4FA02000B00BF
:1043B0003000390002F008FF149B149A013308936F
:1043C000129B06003033137022002B000F0001F007
:1043D000B7FC002874D132003B000020684902F08D
:1043E000F3FE22002B0001F0ABFC002800D0D7E048
:1043F000189B089A934200D171E7002220002900FF
:10440000604B02F01FFC5F4B04000D0030003900D0
:10441000002202F017FC089B06000F001493BEE771
:104420002000290002F00EFC069A069B9446089391
:10443000129B14901591634419933000390003F0D6
:1044400063FA189003F096FA02000B00300039006E
:1044500002F0BAFE189E089B3036199A1E7001337E
:1044600004000D00089393422DD114981599069AD3
:10447000129B9446634400220893474B01F088FC4A
:1044800002000B002000290001F06EFC002800D083
:1044900086E0149A159B00203F4902F095FE020029
:1044A0000B002000290001F04BFC002800D116E78A
:1044B000089B1A00013A08921278302AF8D0089323
:1044C0000E9B039346E000222E4B02F0BBFB06003E
:1044D0000F00B2E7069B069A0A93079B089C099D6A
:1044E000013B9B180B9332003B002000290001F098
:1044F000AFFF03F009FA079003F03CFA32003B00EB
:1045000002F0A0FB02000B002000290002F05CFE7C
:104510000A9B1A0001320A920892079A30321A70E6
:104520000B9A9A424FD102000B0001F031FC32008D
:104530003B0004000D0001F017FC00282ED13200D2
:104540003B002000290001F0F5FB002802D0079B6A
:10455000DE0723D40599049800F090FD0023089A03
:104560001370039B249A01331360269B002B00D108
:10457000BAE4089A1A60B7E4D0800000A88000006E
:104580000000F03F0000244000001C400000C0FC80
:10459000000014400000C07C0000E03F039B0E932D
:1045A000089B0893013B1A78392A08D1069A9A4247
:1045B000F7D10E9A069901320E9230220A701A78BB
:1045C00001321A707CE70022A94B02F03BFB00226B
:1045D000002304000D0001F0ADFB002800D182E7AC
:1045E000B8E70F9F0D9D0A9C002F12D0229A012A36
:1045F0006EDC179A002A65D09E4A9B180A9A012100
:10460000D2180A920C9A0498D3180C9300F0E6FD85
:104610000700002C0ED00C9B002B0BDD0C9A230006
:10462000944200DD13000A9AE41AD21A0A920C9AF4
:10463000D31A0C930D9B002B1ED00F9B002B5CD02C
:10464000002D10DD39002A00049800F08FFE059A35
:1046500001000700049800F0D9FD060005990498B0
:1046600000F00CFD05960D9B5A1BAB4204D005993A
:10467000049800F07BFE05900121049800F0AEFD47
:10468000139B0600002B3ADD1A000100049800F08D
:104690006DFE229B06000025012B38DC0025089BBF
:1046A000AB4230D1099B1B03AB422CD1724B099A10
:1046B000134228D00A9B013501330A930C9B013326
:1046C0000C9320E036231A9A0D9D0A9C9B1A95E7BD
:1046D000079B5D1E0D9BAB4207DB5D1B079B0A9C86
:1046E000002B8BDAE41A002388E70D9B139AEB1A50
:1046F000D3180D9513930025F0E70D9AB7E7229B89
:104700000025012BCADD139B0120002B08D0336943
:1047100003339B00F318586800F018FD2023181A83
:104720000C9B181802001F231A40184247D001336F
:104730009B1A042B3FDD1C239B1A0A9AE418D218FB
:104740000A920C9AD3180C930A9B002B05DD1A00D1
:104750000599049800F066FE05900C9B002B05DD82
:1047600031001A00049800F05DFE0600169B002B35
:1047700027D03100059800F0C3FE002821DA039B02
:104780000A22013B039305990023049800F09AFC48
:104790000F9B0590002B00D15DE1002339000A2218
:1047A000049800F08FFC0B9B0700002B49DC229B38
:1047B000022B0EDC45E0042BC6D01C33BDE71300F2
:1047C000FBE7079B002B36DC229B022B33DD079B8C
:1047D0000B930B9B002B0CD131000522049800F0A9
:1047E00071FC06000100059800F08AFE002800DD3B
:1047F0009FE5239BDB430393069B08930025310031
:10480000049800F03BFC002F00D1A3E6002D05D05A
:10481000BD4203D02900049800F030FC3900049810
:1048200000F02CFC96E600263700E2E70E9B129E75
:10483000039337007DE50F9B002B00D1C3E0079B5E
:104840000B93002C05DD39002200049800F0EAFDEE
:1048500007003800002D24D07968049800F0CAFBC6
:10486000041E11D12200054B05480649FFF707FB3E
:1048700000002440330400000000F07F248000008A
:10488000C37F0000EF02000039003A690C310232A8
:1048900092000C30FFF73FFA01222100049800F04B
:1048A000C1FD069B0B9A0793013B9B1801223D001B
:1048B00007000E93089B13400D9331000598FFF7F6
:1048C0003AFA290004000B90059800F019FE3A000E
:1048D0000C903100049800F02FFE0122C3683034A0
:1048E00008900A92002B04D10100059800F008FE00
:1048F0000A900899049800F0C1FB079B0A9A0133BB
:104900000893229B13430D9A134309D1392C22D0CB
:104910000C9B002B01DD0B9C3134079B1C706EE758
:104920000C9B002B04DB229A13430D9A13431ED1D8
:104930000A9B002BF1DD05990122049800F072FD1D
:104940003100059000F0DCFD002802DCE5D1E30732
:10495000E3D5392CDFD13923079A1370089B0893CC
:10496000013B1A78392A63D001321A7047E70A9B53
:10497000002B03DD392CEED00134CEE7079B079ADC
:104980001C700E9B93423ED000230A220599049886
:1049900000F098FB002305900A2229000498BD42EC
:1049A00006D100F08FFB05000700089B079384E702
:1049B00000F088FB3900050000230A22049800F06B
:1049C00081FB0700F1E7079B0B9300253100059859
:1049D000FFF7B1F9069B303058550B9B01350400A9
:1049E000AB4207DD00230A220599049800F06AFB18
:1049F0000590EBE70B9A0123002A00DD1300002548
:104A0000069AD318089305990122049800F00AFD2C
:104A10003100059000F074FD00289FDC01D1E4070F
:104A20009CD4089B0893013B1A78302AFAD0E6E61A
:104A3000069A9A4293D1039B013303933123137057
:104A4000DDE6094B269A0693084B002A01D0FFF7B2
:104A500049FAFFF749FA0B9B002BB6DC229B022B8D
:104A600000DDB6E6B1E7C0469F7F0000A77F0000EB
:104A7000936810B5013B9360002B04DA9469A3425C
:104A800007DB0A2905D01368581C1060197008004C
:104A900010BD00F095FE0100F9E7F8B506000F0023
:104AA0001400D518AC4201D1002007E021783A006B
:104AB0003000FFF7DDFF0134431CF3D1F8BD0000E7
:104AC000F0B5A1B00F0015001E000390002804D01F
:104AD000036A002B01D1FFF79DF87B6EDB0705D43D
:104AE000BB899B0502D4B86DFFF708F9BB891B078A
:104AF00002D53B69002B13D13900039800F0A2FEC8
:104B000000280DD07B6EDB0703D50120404221B089
:104B1000F0BDBB899B05F8D4B86DFFF7F0F8F4E75A
:104B2000002308AC6361203363761033A3760796C5
:104B30002E003378002B01D0252B48D1731B059311
:104B4000AE420BD02A0039000398FFF7A6FF0130D0
:104B500000D1AFE06369059A9B1863613378002B3D
:104B600000D1A7E0012200235242626004A954321E
:104B70005218751C2360E360A3601370A365594B42
:104B80000522180029780593FFF7BAF86E1C002853
:104B90001FD12268D30604D5532304A95B18202112
:104BA0001970130704D5532304A95B182B2119701E
:104BB0002B782A2B16D02E0000210A20E3683278A9
:104BC000751C303A092A4ED9002911D117E0013657
:104BD000AFE7059B2268C01A0123834013433500C9
:104BE0002360CCE7079B191D1B680791002B01DB95
:104BF0000B9304E05B42E3600223134323603378AA
:104C00002E2B0AD173782A2B35D1079B02361A1D19
:104C10001B680792002B2BDB0993334D03222800DE
:104C20003178FFF76DF8002806D04023401B834001
:104C30002268013613432360317806222B48751C05
:104C40002176FFF75DF8002843D0294B002B25D1B2
:104C50000722079B07339343083307936369049A3A
:104C60009B18636164E743432E0001219B18A6E76C
:104C700001235B42D0E700230A201A00013663605B
:104C80003178751C3039092903D9002BC5D0099218
:104C9000C3E742432E0001235218F1E707AA00920E
:104CA00021003A00134B0398FEF760FB0490049B2D
:104CB0000133D3D17B6EDB0705D4BB899B0502D4BE
:104CC000B86DFFF71CF8BB895B0600D51DE70D9892
:104CD0001DE707AA009221003A00064B0398FEF751
:104CE0000BFEE3E7358000003B8000003F800000C2
:104CF0006D3300009B4A000010B5034B010018689B
:104D000000F026F810BDC046B002002070B50F4E6E
:104D10000D0031680400002902D100F0C9FE3060A6
:104D20002900200000F0C4FE431C0AD00323C51C48
:104D30009D43A84207D0291A200000F0B9FE013097
:104D400001D101256D42280070BDC046EC04002051
:104D5000F7B50322CB1C9343083306001F000C2B2E
:104D600034D20C27B94233D8300000F033F9344D37
:104D70002B681C00002C30D139003000FFF7C6FF33
:104D80000400431C59D12C682500002D4CD1002C67
:104D90004DD023682900E3183000019300F088FE0D
:104DA000019B834243D123680337FF1A03239F43A8
:104DB00008370C2F00D20C2739003000FFF7A6FF70
:104DC000013034D02368DB19236013E0002BC9DAEB
:104DD0000C23002533602800FEBD2168C91B20D4A8
:104DE0000B2917D9E2192760A34211D12A60636801
:104DF000116053603000250000F0F4F807220B35F5
:104E0000231D9543EA1A9D42E5D05B1BA350E2E7C0
:104E10005A60ECE76268A34201D12A60EAE75A606F
:104E2000E8E723006468A5E72C006D68ADE70C2374
:104E30003000336000F0D6F8CDE72760DAE7C046EF
:104E4000E804002082B0002900D101A9101E06D07C
:104E5000002B06D013780B601078431E984102B0E7
:104E6000704702204042FAE7F7B58B8905000C0035
:104E70001A075CD44A68002A04DC0A6C002A01DCA8
:104E80000020FEBDE76A002FFAD0002280202E68A5
:104E90002A601A004001216A0240034234D0606D4A
:104EA000A3895B0706D56368C01A636B002B01D02A
:104EB000236CC01A020000232800E76A216AB84761
:104EC000A289431C06D129681D292CD82A4B0B41E5
:104ED000DB0728D40023636023692360D20405D54F
:104EE000431C02D12B68002B00D16065616B2E60E2
:104EF0000029C5D023004433994202D0280000F095
:104F000049FE00206063BCE701232800B847431C2A
:104F1000C6D12B68002BC3D01D2B01D0162B01D17D
:104F20002E60ADE7A28940231343A381A9E70E6950
:104F3000002EA5D00F680E60BA1B019200229B07BD
:104F400000D14A69A260019B002B99DDA36A32005F
:104F50001F002800019B216AB847002806DC402377
:104F60000120A28940421343A3818AE7019B36189E
:104F70001B1A0193E7E7C046FEFFBFDF0B6970B560
:104F800005000C00002B02D10025280070BD002870
:104F900004D0036A002B01D1FEF73CFE0C22A35E75
:104FA000002BF1D0626ED20704D49B0502D4A06D11
:104FB000FEF7A4FE28002100FFF756FF636E0500F0
:104FC000DB07E2D4A3899B05DFD4A06DFEF797FE33
:104FD000DBE7000010B50248FEF790FE10BDC046AA
:104FE000E404002010B50248FEF789FE10BDC0465B
:104FF000E404002070B5C56906000C00002D0ED138
:105000001020FFF779FE021EF06104D16B21194BCD
:10501000194800F073FD456085600560C560F5695D
:10502000EB68002B13D0F369A200DB689B181868AB
:10503000002818D101210D00A5406A1D3000920002
:1050400000F07AFD00280CD0446085600DE021223C
:105050000421300000F070FDF369E860DB68002B8C
:10506000E1D1002070BD02681A6000230361C360B3
:10507000F8E7C046AC7F00004680000070B5C66906
:1050800005000C00002E0ED11020FFF735FE021E89
:10509000E86104D18F21094B094800F02FFD4660DB
:1050A00086600660C660002C07D0EB696268DB682A
:1050B00092009B181A6822601C6070BDAC7F0000D3
:1050C00046800000F7B50E0001900C001D00002086
:1050D0000F6914363368013099B251431B0C5343A6
:1050E00049190D0C5B191D0C89B21B045B1808C60D
:1050F0008742EFDC002D22D0A368BB4219DC616837
:1051000001980131FFF776FF061E05D13200BA2162
:105110000C4B0D4800F0F2FC210022690C310232E8
:1051200092000C30FEF7F7FD21000198FFF7A6FF73
:1051300034003B1D9B00E3185D607B1C2361200055
:10514000FEBDC04624800000468000000300020C23
:105150000020824201D11B0410301A0E01D1083008
:105160001B021A0F01D104301B019A0F01D102302A
:105170009B00002B03DB01305B0000D42020704734
:105180000368010007221800104013420DD0063AB0
:105190000020134205D10230034203D0D340100057
:1051A0000B6070479B080B60FBE79AB2002A01D1A5
:1051B00010201B0CDAB2002A01D108301B0A1A0792
:1051C00001D104301B099A0701D102309B08DA078C
:1051D000E9D401305B08E6D12020E2E710B50C00ED
:1051E0000121FFF707FF002807D14621054C0200E7
:1051F000054B2000FF3100F081FC01234461036175
:1052000010BDC0464680000024800000F0B51500A7
:105210000A692B690C008BB09A4201DA2C000D0050
:1052200027692E696168BB190393A368BA19934271
:1052300000DA0131FFF7DEFE0290002806D1B1212D
:10524000484B4948029A490000F058FC029B002252
:1052500014339C46BB199B00634404936346049932
:105260008B422AD32300BF00143314350893B600B1
:10527000DB190593AB190993042306932300059AC0
:10528000153301959A4205D3131B153B9B08013337
:105290009B000693019B099A934210D3039B002B1A
:1052A00005DD049B043B04931B68002B56D0029B36
:1052B000039A18001A610BB0F0BD04C3CFE7019B3D
:1052C000186880B200281ED067460025089E02CECE
:1052D0003B6807938BB243431A006B469B8BD318F2
:1052E0005B190D0C4543079A110C69181A0C8A18A2
:1052F0009BB2150C12041A43059B04C7B342E6D8AF
:105300006346069A9D50019B1868000C20D06346A6
:105310002500614600271B6814352A680E6892B282
:105320004243360C9219D21916049BB21E430E60EA
:1053300040CD4B68360C46439BB2120CF3189B18B9
:10534000059A1F0C0431AA42E7D8624606995350C9
:10535000019B0433019304239C449BE7039B013B83
:1053600003939BE72480000046800000F7B50323E9
:10537000150007000E001A401D4208D02549013AC9
:105380009200525800233100FFF79CFE0600AD103A
:105390003DD0FC69002C0FD11020FFF7ADFC021EA0
:1053A000F86105D1B4211C4B1C48FF3100F0A6FB6D
:1053B000446084600460C460FB699C680193002CB5
:1053C00008D138001649FFF709FF019B04009860D7
:1053D0000023036001231D420AD03100220038005F
:1053E000FFF714FF310001903800FFF747FE019EE0
:1053F0006D100CD02068002807D122002100380051
:10540000FFF704FF0023206003600400E2E73000A0
:10541000FEBDC04698810000AC7F000046800000C1
:1054200071020000F0B50C0017002369551187B018
:10543000EB180293013301934968A3680490019A21
:10544000934210DB0498FFF7D5FD0023020006000D
:105450001900143298420CD1DF313200264B274814
:10546000FF3100F04BFB01315B00E8E79800115081
:105470000133AB42FADBEB43DB171D401F21230056
:105480003800AD0055192269143392000840844653
:105490009A180F422AD00131091A0591002103956B
:1054A00067461868B8400843039901C103910598FD
:1054B00002CBC1409A42F3D8200015300423824227
:1054C00004D3131B153B9B0801339B00E9500029B3
:1054D00002D0029B02330193019B0498013B2100FF
:1054E0003361FFF7CBFD300007B0F0BD02CB02C542
:1054F0009A42FBD8F0E7C0462480000046800000B6
:1055000030B50B6904690200E01A9C420ED11432D6
:105510009B0014311400C918D218043A04391568D4
:105520000B689D4203D001209D4203D330BD9442BD
:10553000F3D3FBE74042F9E7F0B50E000700110096
:10554000300087B01400FFF7DBFF051E10D101000B
:105550003800FFF74FFD021E04D13F4B3F48404942
:1055600000F0CCFA012345610361100007B0F0BDE3
:1055700001230193002804DB230034001E000023D4
:10558000019338006168FFF735FD021E03D1324BED
:1055900032483449E4E7019B0027C3602069143492
:1055A0008300E3182100019434000293336914341A
:1055B0009B00E3180393130014339C460593049156
:1055C000049B02CC20CB0493ABB2DF198BB2FB1A45
:1055D000090C2D0C6D1A191469189BB20F140904CB
:1055E0001943634602C39C46039BA342E8D831009B
:1055F000039C153104238C4204D3A31B153B9B0849
:1056000001339B000199CD1805992E00CB189C46BB
:1056100002998E4210D3029EE91E00248E4204D3CA
:1056200031000331491B89088C001B19043B1968A0
:1056300000290FD0106198E702CE8CB2E4190F0C4C
:1056400021147918A4B20F1409042143644602C43A
:10565000A446DDE70138E9E7248000004680000029
:105660003702000045020000F7B5012114001D00BB
:10567000089FFFF7BFFC061E05D13200244B2548CA
:10568000254900F03BFA2B036D001B0B6D0D25D156
:105690000193002C28D068460094FFF771FD019B10
:1056A000009900281ED020221C00121A94402200CB
:1056B000C3400A4372610193019CB461631E9C4123
:1056C00001343461002D17D03524144BED182D18FA
:1056D0003D60099B241A1C603000FEBD80225203ED
:1056E0001343D5E77161E7E701A8FFF749FD019B87
:1056F000012473612030E4E7094BC018094B38607E
:10570000E3189B00F3185869FFF720FD6401E0E7F8
:1057100024800000468000000F030000CDFBFFFF47
:10572000CEFBFFFFFFFFFF3F70B50C000E25495F6A
:1057300000F0AAF9002803DB636D1B18636570BDD8
:10574000A389024A1340A381F9E7C046FFEFFFFF98
:10575000F8B51F008B8905000C001600DB0505D588
:105760000E23C95E0022022300F07AF9A389054ABC
:1057700028001340A38132000E23E15E3B0000F0BD
:10578000A9F9F8BDFFEFFFFF70B50C000E25495FCA
:1057900000F066F9A389421C03D1054A1340A38196
:1057A00070BD802252011343A3816065F8E7C046B3
:1057B000FFEFFFFF10B50E23C95E00F01BF910BD0F
:1057C000F8B506000D001400002804D0036A002B71
:1057D00001D1FEF71FFAA369A360A3891B0728D58F
:1057E0002369002B25D023692068EFB2C01A6369B2
:1057F000EDB2834205DC21003000FFF7BFFB00283B
:105800001DD1A3680130013BA36023685A1C2260AC
:105810001F706369834204D0A389DB0707D50A2D73
:1058200005D121003000FFF7A9FB002807D128008F
:10583000F8BD2100300000F005F80028D3D0012584
:105840006D42F4E7304B70B5050018680C00002875
:1058500004D0036A002B01D1FEF7DCF90C23E25ED1
:1058600093B2110723D4D90607D4092301202B6052
:1058700037331343A381404270BD5B0713D5616B7F
:10588000002908D023004433994202D0280000F0B8
:1058900081F9002363632422A3899343A381002316
:1058A0006360236923600823A2891343A3812369CA
:1058B000002B0BD1A0218022A389890092000B40EC
:1058C000934203D02100280000F056F80C22A35E7A
:1058D00001201A0099B2024003420FD00022A260B8
:1058E00062695242A261002022698242C4D1090643
:1058F000C2D540221343A3810138BDE7880700D4F5
:105900006269A260EFE7C046B00200200300081EF3
:1059100005D0FF2A04D98A2201201A60404270472C
:1059200001200A70FBE7000070B50E001D000E2379
:10593000C95E140096B000290CDAB28980231100E8
:1059400019401A4213D00021403B002029602360F7
:1059500016B070BD6A4600F05FF80028EDDBF0235A
:1059600001991B021940034BC9184B42594180232E
:10597000DB00EAE700E0FFFFF7B502268B890500B0
:105980000C00334206D023004733236023610123F8
:105990006361F7BD6A4601ABFFF7C6FF00990700D8
:1059A0002800FFF7D5F9002808D10C22A35E9A053C
:1059B000EFD4032293431E43A681E4E78023A28908
:1059C00020601343A381009B20616361019B002B36
:1059D0000CD028000E23E15E00F030F8002805D03E
:1059E0000323A2899A43023B1343A381A3893B4328
:1059F000A381CEE7002370B5064D040008002B609C
:105A000002F00EF8431C03D12B68002B00D023605A
:105A100070BDC046F0040020002370B5064D0400A0
:105A2000080011002B6002F003F8431C03D12B681F
:105A3000002B00D0236070BDF0040020002370B55F
:105A4000064D040008002B6002F002F8431C03D14D
:105A50002B68002B00D0236070BDC046F0040020EE
:105A600070B50400080011001A000023054D2B60DA
:105A700001F0FEFF431C03D12B68002B00D02360F4
:105A800070BDC046F004002070B50400080011008D
:105A90001A000023054D2B60FCF742FA431C03D18A
:105AA0002B68002B00D0236070BDC046F00400209E
:105AB000002370B5064D040008002B6001F0E0FFE4
:105AC000431C03D12B68002B00D0236070BDC0465F
:105AD000F004002070B50400080011001A00002333
